{
  "_format": "hh-sol-artifact-1",
  "contractName": "FormalMediaContract",
  "sourceName": "contracts/FormalMediaContract.sol",
  "abi": [
    {
      "anonymous": false,
      "inputs": [
        {
          "indexed": false,
          "internalType": "address",
          "name": "recipient",
          "type": "address"
        },
        {
          "indexed": false,
          "internalType": "uint256",
          "name": "tweetId",
          "type": "uint256"
        }
      ],
      "name": "AddTweet",
      "type": "event"
    },
    {
      "anonymous": false,
      "inputs": [
        {
          "indexed": false,
          "internalType": "uint256",
          "name": "tweetId",
          "type": "uint256"
        },
        {
          "indexed": false,
          "internalType": "bool",
          "name": "isDeleted",
          "type": "bool"
        }
      ],
      "name": "DeleteTweet",
      "type": "event"
    },
    {
      "anonymous": false,
      "inputs": [
        {
          "indexed": false,
          "internalType": "address",
          "name": "userAddress",
          "type": "address"
        },
        {
          "indexed": false,
          "internalType": "string",
          "name": "name",
          "type": "string"
        }
      ],
      "name": "SetUpProfile",
      "type": "event"
    },
    {
      "inputs": [
        {
          "internalType": "string",
          "name": "tweetText",
          "type": "string"
        },
        {
          "internalType": "bool",
          "name": "isDeleted",
          "type": "bool"
        },
        {
          "internalType": "string",
          "name": "ddata",
          "type": "string"
        }
      ],
      "name": "addTweet",
      "outputs": [],
      "stateMutability": "nonpayable",
      "type": "function"
    },
    {
      "inputs": [
        {
          "internalType": "uint256",
          "name": "tweetId",
          "type": "uint256"
        },
        {
          "internalType": "bool",
          "name": "isDeleted",
          "type": "bool"
        }
      ],
      "name": "deleteTweet",
      "outputs": [],
      "stateMutability": "nonpayable",
      "type": "function"
    },
    {
      "inputs": [],
      "name": "getAllTweets",
      "outputs": [
        {
          "components": [
            {
              "internalType": "uint256",
              "name": "id",
              "type": "uint256"
            },
            {
              "internalType": "address",
              "name": "username",
              "type": "address"
            },
            {
              "internalType": "string",
              "name": "tweetText",
              "type": "string"
            },
            {
              "internalType": "bool",
              "name": "isDeleted",
              "type": "bool"
            },
            {
              "internalType": "string",
              "name": "ddata",
              "type": "string"
            }
          ],
          "internalType": "struct FormalMediaContract.Tweet[]",
          "name": "",
          "type": "tuple[]"
        }
      ],
      "stateMutability": "view",
      "type": "function"
    },
    {
      "inputs": [],
      "name": "getMyTweets",
      "outputs": [
        {
          "components": [
            {
              "internalType": "uint256",
              "name": "id",
              "type": "uint256"
            },
            {
              "internalType": "address",
              "name": "username",
              "type": "address"
            },
            {
              "internalType": "string",
              "name": "tweetText",
              "type": "string"
            },
            {
              "internalType": "bool",
              "name": "isDeleted",
              "type": "bool"
            },
            {
              "internalType": "string",
              "name": "ddata",
              "type": "string"
            }
          ],
          "internalType": "struct FormalMediaContract.Tweet[]",
          "name": "",
          "type": "tuple[]"
        }
      ],
      "stateMutability": "view",
      "type": "function"
    },
    {
      "inputs": [
        {
          "internalType": "address",
          "name": "_userAddress",
          "type": "address"
        }
      ],
      "name": "getProfile",
      "outputs": [
        {
          "internalType": "string",
          "name": "",
          "type": "string"
        }
      ],
      "stateMutability": "view",
      "type": "function"
    },
    {
      "inputs": [
        {
          "internalType": "address",
          "name": "_userAddress",
          "type": "address"
        },
        {
          "internalType": "string",
          "name": "_name",
          "type": "string"
        }
      ],
      "name": "setUpProfile",
      "outputs": [],
      "stateMutability": "nonpayable",
      "type": "function"
    }
  ],
  "bytecode": "0x608060405234801561001057600080fd5b50611714806100206000396000f3fe608060405234801561001057600080fd5b50600436106100625760003560e01c806307511f0b146100675780630f53a4701461008357806353256135146100b3578063932e4e02146100d1578063aefedbc2146100ed578063f0312a371461010b575b600080fd5b610081600480360381019061007c9190611062565b610127565b005b61009d60048036038101906100989190611039565b6101b8565b6040516100aa91906113be565b60405180910390f35b6100bb610289565b6040516100c8919061139c565b60405180910390f35b6100eb60048036038101906100e691906110b6565b610707565b005b6100f56108b8565b604051610102919061139c565b60405180910390f35b61012560048036038101906101209190611135565b610da0565b005b80600260008473ffffffffffffffffffffffffffffffffffffffff1673ffffffffffffffffffffffffffffffffffffffff168152602001908152602001600020908051906020019061017a929190610ea8565b507f8f8e671e8e8c1618c09dec0e970c050996b1acdc34820f63127145fd0dec258882826040516101ac929190611343565b60405180910390a15050565b6060600260008373ffffffffffffffffffffffffffffffffffffffff1673ffffffffffffffffffffffffffffffffffffffff16815260200190815260200160002080546102049061154f565b80601f01602080910402602001604051908101604052809291908181526020018280546102309061154f565b801561027d5780601f106102525761010080835404028352916020019161027d565b820191906000526020600020905b81548152906001019060200180831161026057829003601f168201915b50505050509050919050565b60606000808054905067ffffffffffffffff8111156102d1577f4e487b7100000000000000000000000000000000000000000000000000000000600052604160045260246000fd5b60405190808252806020026020018201604052801561030a57816020015b6102f7610f2e565b8152602001906001900390816102ef5790505b5090506000805b6000805490508110156105db57600015156000828154811061035c577f4e487b7100000000000000000000000000000000000000000000000000000000600052603260045260246000fd5b906000526020600020906005020160030160009054906101000a900460ff16151514156105c857600081815481106103bd577f4e487b7100000000000000000000000000000000000000000000000000000000600052603260045260246000fd5b90600052602060002090600502016040518060a0016040529081600082015481526020016001820160009054906101000a900473ffffffffffffffffffffffffffffffffffffffff1673ffffffffffffffffffffffffffffffffffffffff1673ffffffffffffffffffffffffffffffffffffffff1681526020016002820180546104469061154f565b80601f01602080910402602001604051908101604052809291908181526020018280546104729061154f565b80156104bf5780601f10610494576101008083540402835291602001916104bf565b820191906000526020600020905b8154815290600101906020018083116104a257829003601f168201915b505050505081526020016003820160009054906101000a900460ff161515151581526020016004820180546104f39061154f565b80601f016020809104026020016040519081016040528092919081815260200182805461051f9061154f565b801561056c5780601f106105415761010080835404028352916020019161056c565b820191906000526020600020905b81548152906001019060200180831161054f57829003601f168201915b5050505050815250508383815181106105ae577f4e487b7100000000000000000000000000000000000000000000000000000000600052603260045260246000fd5b602002602001018190525081806105c4906115b2565b9250505b80806105d3906115b2565b915050610311565b5060008167ffffffffffffffff81111561061e577f4e487b7100000000000000000000000000000000000000000000000000000000600052604160045260246000fd5b60405190808252806020026020018201604052801561065757816020015b610644610f2e565b81526020019060019003908161063c5790505b50905060005b828110156106fd5783818151811061069e577f4e487b7100000000000000000000000000000000000000000000000000000000600052603260045260246000fd5b60200260200101518282815181106106df577f4e487b7100000000000000000000000000000000000000000000000000000000600052603260045260246000fd5b602002602001018190525080806106f5906115b2565b91505061065d565b5080935050505090565b60008080549050905060006040518060a001604052808381526020013373ffffffffffffffffffffffffffffffffffffffff16815260200186815260200185151581526020018481525090806001815401808255809150506001900390600052602060002090600502016000909190919091506000820151816000015560208201518160010160006101000a81548173ffffffffffffffffffffffffffffffffffffffff021916908373ffffffffffffffffffffffffffffffffffffffff16021790555060408201518160020190805190602001906107e7929190610ea8565b5060608201518160030160006101000a81548160ff0219169083151502179055506080820151816004019080519060200190610824929190610ea8565b505050336001600083815260200190815260200160002060006101000a81548173ffffffffffffffffffffffffffffffffffffffff021916908373ffffffffffffffffffffffffffffffffffffffff1602179055507f8b2db9b424f26463510ef5b02c16f2465836b52081b51d2112ec76102053bdea33826040516108aa929190611373565b60405180910390a150505050565b60606000808054905067ffffffffffffffff811115610900577f4e487b7100000000000000000000000000000000000000000000000000000000600052604160045260246000fd5b60405190808252806020026020018201604052801561093957816020015b610926610f2e565b81526020019060019003908161091e5790505b5090506000805b600080549050811015610c74573373ffffffffffffffffffffffffffffffffffffffff166001600083815260200190815260200160002060009054906101000a900473ffffffffffffffffffffffffffffffffffffffff1673ffffffffffffffffffffffffffffffffffffffff16148015610a17575060001515600082815481106109f4577f4e487b7100000000000000000000000000000000000000000000000000000000600052603260045260246000fd5b906000526020600020906005020160030160009054906101000a900460ff161515145b15610c615760008181548110610a56577f4e487b7100000000000000000000000000000000000000000000000000000000600052603260045260246000fd5b90600052602060002090600502016040518060a0016040529081600082015481526020016001820160009054906101000a900473ffffffffffffffffffffffffffffffffffffffff1673ffffffffffffffffffffffffffffffffffffffff1673ffffffffffffffffffffffffffffffffffffffff168152602001600282018054610adf9061154f565b80601f0160208091040260200160405190810160405280929190818152602001828054610b0b9061154f565b8015610b585780601f10610b2d57610100808354040283529160200191610b58565b820191906000526020600020905b815481529060010190602001808311610b3b57829003601f168201915b505050505081526020016003820160009054906101000a900460ff16151515158152602001600482018054610b8c9061154f565b80601f0160208091040260200160405190810160405280929190818152602001828054610bb89061154f565b8015610c055780601f10610bda57610100808354040283529160200191610c05565b820191906000526020600020905b815481529060010190602001808311610be857829003601f168201915b505050505081525050838381518110610c47577f4e487b7100000000000000000000000000000000000000000000000000000000600052603260045260246000fd5b60200260200101819052508180610c5d906115b2565b9250505b8080610c6c906115b2565b915050610940565b5060008167ffffffffffffffff811115610cb7577f4e487b7100000000000000000000000000000000000000000000000000000000600052604160045260246000fd5b604051908082528060200260200182016040528015610cf057816020015b610cdd610f2e565b815260200190600190039081610cd55790505b50905060005b82811015610d9657838181518110610d37577f4e487b7100000000000000000000000000000000000000000000000000000000600052603260045260246000fd5b6020026020010151828281518110610d78577f4e487b7100000000000000000000000000000000000000000000000000000000600052603260045260246000fd5b60200260200101819052508080610d8e906115b2565b915050610cf6565b5080935050505090565b3373ffffffffffffffffffffffffffffffffffffffff166001600084815260200190815260200160002060009054906101000a900473ffffffffffffffffffffffffffffffffffffffff1673ffffffffffffffffffffffffffffffffffffffff161415610ea4578060008381548110610e42577f4e487b7100000000000000000000000000000000000000000000000000000000600052603260045260246000fd5b906000526020600020906005020160030160006101000a81548160ff0219169083151502179055507f2430f837dd2fb40e08c064be9db3d0cf2a7a21f8fe716a2a41787dafc66a7e2a8282604051610e9b9291906113e0565b60405180910390a15b5050565b828054610eb49061154f565b90600052602060002090601f016020900481019282610ed65760008555610f1d565b82601f10610eef57805160ff1916838001178555610f1d565b82800160010185558215610f1d579182015b82811115610f1c578251825591602001919060010190610f01565b5b509050610f2a9190610f75565b5090565b6040518060a0016040528060008152602001600073ffffffffffffffffffffffffffffffffffffffff16815260200160608152602001600015158152602001606081525090565b5b80821115610f8e576000816000905550600101610f76565b5090565b6000610fa5610fa08461142e565b611409565b905082815260208101848484011115610fbd57600080fd5b610fc884828561150d565b509392505050565b600081359050610fdf81611699565b92915050565b600081359050610ff4816116b0565b92915050565b600082601f83011261100b57600080fd5b813561101b848260208601610f92565b91505092915050565b600081359050611033816116c7565b92915050565b60006020828403121561104b57600080fd5b600061105984828501610fd0565b91505092915050565b6000806040838503121561107557600080fd5b600061108385828601610fd0565b925050602083013567ffffffffffffffff8111156110a057600080fd5b6110ac85828601610ffa565b9150509250929050565b6000806000606084860312156110cb57600080fd5b600084013567ffffffffffffffff8111156110e557600080fd5b6110f186828701610ffa565b935050602061110286828701610fe5565b925050604084013567ffffffffffffffff81111561111f57600080fd5b61112b86828701610ffa565b9150509250925092565b6000806040838503121561114857600080fd5b600061115685828601611024565b925050602061116785828601610fe5565b9150509250929050565b600061117d83836112a8565b905092915050565b61118e816114c5565b82525050565b61119d816114c5565b82525050565b60006111ae8261146f565b6111b88185611492565b9350836020820285016111ca8561145f565b8060005b8581101561120657848403895281516111e78582611171565b94506111f283611485565b925060208a019950506001810190506111ce565b50829750879550505050505092915050565b611221816114d7565b82525050565b611230816114d7565b82525050565b60006112418261147a565b61124b81856114a3565b935061125b81856020860161151c565b61126481611688565b840191505092915050565b600061127a8261147a565b61128481856114b4565b935061129481856020860161151c565b61129d81611688565b840191505092915050565b600060a0830160008301516112c06000860182611325565b5060208301516112d36020860182611185565b50604083015184820360408601526112eb8282611236565b91505060608301516113006060860182611218565b50608083015184820360808601526113188282611236565b9150508091505092915050565b61132e81611503565b82525050565b61133d81611503565b82525050565b60006040820190506113586000830185611194565b818103602083015261136a818461126f565b90509392505050565b60006040820190506113886000830185611194565b6113956020830184611334565b9392505050565b600060208201905081810360008301526113b681846111a3565b905092915050565b600060208201905081810360008301526113d8818461126f565b905092915050565b60006040820190506113f56000830185611334565b6114026020830184611227565b9392505050565b6000611413611424565b905061141f8282611581565b919050565b6000604051905090565b600067ffffffffffffffff82111561144957611448611659565b5b61145282611688565b9050602081019050919050565b6000819050602082019050919050565b600081519050919050565b600081519050919050565b6000602082019050919050565b600082825260208201905092915050565b600082825260208201905092915050565b600082825260208201905092915050565b60006114d0826114e3565b9050919050565b60008115159050919050565b600073ffffffffffffffffffffffffffffffffffffffff82169050919050565b6000819050919050565b82818337600083830152505050565b60005b8381101561153a57808201518184015260208101905061151f565b83811115611549576000848401525b50505050565b6000600282049050600182168061156757607f821691505b6020821081141561157b5761157a61162a565b5b50919050565b61158a82611688565b810181811067ffffffffffffffff821117156115a9576115a8611659565b5b80604052505050565b60006115bd82611503565b91507fffffffffffffffffffffffffffffffffffffffffffffffffffffffffffffffff8214156115f0576115ef6115fb565b5b600182019050919050565b7f4e487b7100000000000000000000000000000000000000000000000000000000600052601160045260246000fd5b7f4e487b7100000000000000000000000000000000000000000000000000000000600052602260045260246000fd5b7f4e487b7100000000000000000000000000000000000000000000000000000000600052604160045260246000fd5b6000601f19601f8301169050919050565b6116a2816114c5565b81146116ad57600080fd5b50565b6116b9816114d7565b81146116c457600080fd5b50565b6116d081611503565b81146116db57600080fd5b5056fea264697066735822122047b61c2628f08c21d920dc570e9dfe653c1b03b18730d8700d894186ec8899c664736f6c63430008040033",
  "linkReferences": {},
  "deployedLinkReferences": {}
}